:10400000E03F001005880000598800005988000032
:1040100059880000598800005988000000000000FD
:1040200000000000000000000000000059880000AF
:1040300059880000000000005988000059880000DD
:10404000598800005D500000598800005988000020
:1040500059880000598800005988000059880000DC
:1040600059880000598800005988000059880000CC
:1040700059880000598800005988000059880000BC
:1040800059880000598800005988000059880000AC
:10409000598800009D51000059880000598800008F
:1040A0000188000059880000D151000059880000A3
:1040B000598800005988000059880000598800007C
:1040C00059880000598800005988000008B540F65A
:1040D0001460074BC1F200001B1A062B00D808BD64
:1040E00040F20003C0F20003002BF8D09847F6E737
:1040F000170E001008B540F6146040F61463C1F2C4
:104100000003C1F200001B1A9B1003EBD37359107C
:1041100000D108BD40F20002C0F20002002AF8D02F
:104120009047F6E710B540F61864C1F20004237812
:1041300073B9FFF7CBFF40F20003C0F200032BB1CD
:104140004AF68010C0F20000AFF300800123237014
:1041500010BD00BF08B540F20003C0F200034BB130
:104160004AF6801040F61C61C0F20000C1F2000166
:10417000AFF3008040F61460C1F2000003682BB179
:1041800040F20003C0F2000303B19847BDE80840C5
:10419000B0E700BF014600200246034600F092B897
:1041A00038B54AF6A4144AF6A015C0F20005C0F2CC
:1041B0000004641BA41018BF05EB840505D0013C66
:1041C00055F8043D9847002CF9D1BDE8384006F079
:1041D000E1BB00BF70B54AF68C164AF68C15C0F2EA
:1041E0000005C0F20006761BB6101CBF043D00247B
:1041F00005D0013455F8043F9847A642F9D14AF654
:1042000094164AF68C15C0F20005C0F20006761B23
:1042100006F0B6FBB6101CBF043D002406D00134E6
:1042200055F8043F9847A642F9D170BD70BD00BF54
:10423000F0B4840743D0541E002A3ED0CDB20346CA
:1042400003E0621E002C38D0144603F8015B9A0785
:10425000F7D1032C2AD9CDB245EA05250F2C45EA22
:10426000054515D9A4F110073F0903F1100606EB27
:1042700007161A46156055609560D5601032B24237
:10428000F8D104F00F040137032C03EB07130DD909
:104290001E462246043A032A46F8045BFAD8221F37
:1042A00022F003020432134404F003042CB1C9B217
:1042B0001C4403F8011BA342FBD1F0BC7047144619
:1042C0000346C6E7F0B549F6C874C0F20004266894
:1042D00085B0D6F848410746002C43D065681F2DAD
:1042E00021DD49F20164C0F200041CB94FF0FF3037
:1042F00005B0F0BD4FF4C87003910292019305F030
:104300007FF903990446029A019B0028EED0D6F863
:1043100048510020256060600546C6F84841C4F851
:104320008801C4F88C013FB96B1C00200235636022
:1043300044F8251005B0F0BD0126AE4004EB850021
:10434000C0F88820D4F88821022F42EA0602C4F877
:104350008821C0F8083102BFD4F88C311E43C4F85C
:104360008C61E1E706F5A674C6F84841B6E700BFE0
:1043700040F20003C0F200032BB144F2A110C0F2DE
:104380000000FFF707BF704710B542F21071084BED
:1043900048431A6840F63544B0FBF4F122F07F42FE
:1043A0000A44196821F07F419142FAD310BD00BF41
:1043B0002410001010B500231A4640FA03F1C3F18F
:1043C000070401F00101A14001330A43082BD2B2D6
:1043D000F3D1104610BD000038B5254B254C1A7896
:1043E00012B11A78012A28D11B7833B1204B1D78DD
:1043F000012D0CBF4025002500E029250D2047F6A2
:10440000FF7104F02CFB122042F6223104F027FB4E
:10441000142041F24B3104F022FB202040F2011124
:1044200004F01DFB2188022089B2013989B204F011
:1044300016FB0320294604F012FB208880B203F00B
:104440008BFB03F021FC04F0DBFB4206FBD5612073
:1044500004F0DDFB04F0D4FB4307FBD5622004F03D
:10446000D6FB054B80221A604FF480721A6038BD6B
:10447000340E00104C04001058C0092070B52A4BAF
:1044800004461A7832B11B78012B4BD1402546F2F5
:10449000615602E0292540F261460D2047F6FF7182
:1044A00004F0DDFA122042F6223104F0D8FA14208A
:1044B00041F24B0104F0D3FA2020314604F0CFFA48
:1044C000A1B22C2004F0CBFA210C184C2D2004F0C2
:1044D000C6FA2188022089B2013989B204F0BFFAF4
:1044E0000320294604F0BBFA06203F2104F0B7FA66
:1044F000208880B203F030FB03F0C6FB04F080FBA1
:104500004006FBD5612004F082FB04F079FB4107F3
:10451000FBD5622004F07BFB054B80221A604FF430
:1045200080721A6070BD00BF340E00104C04001081
:1045300058C00920F8B506460F4603F013FA1E4D81
:10454000044620B96B7843F004036B70F8BD042E69
:1045500006700ED1194B40F635411A68120DC27023
:10456000174A1B681268C3F3130301FB032343605C
:1045700015E0AB78C3706B6843602B899BB2623BDC
:104580008370104B1B7843720F4B1B780372288982
:1045900080B203F0CDFA0D4BA0721B78E37204F1E8
:1045A0000E003946322205F021FB6B780120637042
:1045B00000236B70F8BD00BF340E001024100010F3
:1045C000084000400A10001008100010A614001047
:1045D00010B5044C606004F04DF96081000C20813E
:1045E00010BD00BF4C04001010B5642004F00FFB98
:1045F00004F006FB00F0040000F0FF040028F7D1EF
:10460000204B80221A6010214FF480721A6043F808
:10461000201C43F8202C022243F8202C03F00CFB32
:1046200003F036FC03F0F6FA03F01EFA164B174AB5
:1046300040F689119C72DC7211809E219C81A2F847
:10464000481040F66211DC81A2F84A109C705C6050
:104650001C811C745C705C749C74DC741C751C7014
:104660004FF41663A2F84C305333A2F84E30084989
:10467000E22382F8503000220023C1E90023C1E97F
:10468000022310BD5CC00920340E00104C04001041
:10469000281500102DE9F843394C2088264680B2B1
:1046A0006238C0B203F056F8364900220D5C13465A
:1046B0008C46354FD95D0133C9071F2B41EA5202A1
:1046C000F7D17168F85CC00740EA52028A424FD1C4
:1046D000002207EB0308002008EBC208014608EBA4
:1046E0000104032A14F81F4C0CDD0CEB050E9EF898
:1046F00028E0013584EA0E044FF07F0EB5FBFEF989
:104700000EFB19558C40013120430829C0B2E6D177
:104710001E4C2168885401322E2ADAD173695BB9A4
:1047200021680120FFF706FF194B10221A60194B70
:1047300020689B6998471FE023685D79104B2168CA
:1047400005F03F05AA1C1869043103F083F82268BC
:1047500005F10803D15C2268EB1DD35C22680635A5
:10476000525D1B0243EA01431343984204D1D7E749
:104770000133B3F5D87FA5D10120BDE8F88300BF90
:104780004C040010CC9F0000841100108011001018
:1047900038C00920340E001038B5584B05461A7E33
:1047A0000179022A1C4613D103221A76544A126850
:1047B000DA615A8C013A92B21A8400229A84DA623F
:1047C000504BDA7C002A00F098802822DA6138BD4C
:1047D000032A3BD1DB6A01F00301A3B1A38C228E33
:1047E0009BB29A420FD1464B1B68E361638E638490
:1047F000013B9BB2238494F8343084F82630E38E56
:1048000023850023E362032977D1AB79002B74D190
:10481000EB7984F834306A7A2B7A03EB0223E3864F
:10482000EA7AAB7A03EB022363866A7C2B7C03EB88
:104830000223A28C9BB292B223869B1A47F6FE7289
:1048400093425ADC2D4B0122DA6238BD012A54D141
:1048500001F00F01052950D14379222B4DD1037F5F
:10486000427F43EA0222063A92B240F67A439A42E3
:1048700043D8236C2BB902230020237660610346C2
:1048800011E004F13800A91D062205F07BF900288B
:10489000F1D004F1380005F10C01062205F072F99F
:1048A0000028E8D038BDEA18917CDA0001FA02F25B
:1048B0000133042B40EA0200F5D1FFF789FEE87DC1
:1048C0002B7E000240EA0340AB7D1843E06003F01A
:1048D000D1FF6B7E206184F82630AB7E23856A7F12
:1048E0002B7F43EA0223638495F82730012203F0EB
:1048F0001F03A3766376034BDA7238BD4C040010B5
:1049000024100010340E00102DE9F0418A4C1D4691
:104910001B680F46164623624A2800F25483DFE8DC
:1049200010F004014F00530056005B005E0063006E
:10493000660068006C007100C400CB0009017F00B4
:104940007A00840089008C0091009900BD00BF00AE
:10495000C10002010601520321019C00A300AD0029
:10496000AB00AF004E0140016B016E017201760198
:10497000A901DE0102024202550260024F036F02EA
:1049800074027A0281029002EB01F801B702EE0292
:104990005D0131035203BF0248034B03C801DA0132
:1049A0000D0252034D00D5023E01E50214024902F8
:1049B0004F021A03F9024B000023B9E2002474E20B
:1049C0000120A0740023A1E10223A372F5E05B4B58
:1049D0001B68C3F3400318E10A88022315E0574B14
:1049E0001B68C3F3001310E10A8810230DE0534B3A
:1049F00024E00A884FF4807307E0504B1B68C3F330
:104A0000402302E10A884FF4007312B94C4A136044
:104A1000D6E24C4AFBE73046294604F0DFF9CFE204
:104A20003046294604F0F6F9CAE2474B1B68C3F347
:104A3000C013EAE00A88802307E0434B1B68C3F3F6
:104A40000023E2E00A884FF480730AB13F4ADEE7B0
:104A50003F4ADCE70323A374B2E2052003F0F6FF2C
:104A600000F007003070E8E10988072900F2AB8206
:104A7000052041F0080115E20523ECE70623EAE7EB
:104A8000344B1A7832705A7872709A78B270DA7839
:104A9000F2701B79337105232B6091E20023DAE772
:104AA0002378B2E00B7823708AE22B4B1A8832709D
:104AB0001B88C3F30723A6E10A881F4BE281E18923
:104AC00040F6EA2289B2914205D901229A7240F653
:104AD0006212DA8117E000229A72D98940F6DC026C
:104AE00089B291428ABFDB8913469BB2E381E28996
:104AF00040F6E92392B29A4297BF0F4B40F6EA2361
:104B0000DB899BB2E381E189134B89B2A3F84A1098
:104B1000617C094A092900F05382D18989B2198040
:104B20000021D18129E204F0A9F90023B4E70B4A5E
:104B30000B4B1A600B238EE7340E001034C0092093
:104B40003CC0092038C0092054C0092058C00920A1
:104B50005CC00920E41400104C04001021BB054384
:104B60001C0000100A886FF4006C02EB0C0340F28A
:104B7000FF319BB28B4200F226827B886FF4006685
:104B8000981980B2884200F21E829342C0F01B82C4
:104B9000AF49A1F84C20A1F84E3004230DE00F23BB
:104BA0000BE00B88B3F5807F00F20D82C3F1360372
:104BB000A74ADBB282F850300723A374B5E700237D
:104BC00033707370A34805F09FF8C4B2B4702246E6
:104BD000F01CA04905F00AF803340BE09E4805F0EC
:104BE00093F8C4B2304600F8014B22469A4904F0CB
:104BF000FDFF01342C60E3E1012030701EE10A88E2
:104C0000964B1A70B8E1954B1B78337015E1944FB1
:104C100000240025C7E90045C7E902454FF0000818
:104C200016F808004FEAC802002104F0DDFCD7E9BD
:104C3000004508F1010820432943B8F1080FC7E9EE
:104C40000001EDD14FF0000806EB0803187A4FEA97
:104C5000C802002104F0C8FCD7E9024508F10108A8
:104C600020432943B8F1080FC7E90201ECD102F053
:104C700037FCA5E17B4A002313601168090211602B
:104C8000F05C116801330143042B1160F5D102235C
:104C9000A372754B01204FF0805220741A60737913
:104CA000327943EA0222714B1A800823A374BDE8CB
:104CB000F0810523A3720E23A37400236C49002204
:104CC0005A5401330A2BF9D16A4B01201A706A4BEE
:104CD0001870BDE8F0810120E072BDE8F081B27883
:104CE0007378120442EA032233781A43F37842EAD3
:104CF0000362624B1A603FE10023F15C5C4A995405
:104D000001330A2BF9D15C4A012010702B60BDE8F9
:104D1000F0810023564900225A5401330A2BF9D15D
:104D200055490A70B8E6554B19680023DA0021FA94
:104D300002F2F2540133042BF8D1ADE673783278E5
:104D400043EA0222494B1A803AE14D4B30781988E8
:104D5000727889B242EA00220A4492B21A801A8812
:104D6000484912B2002A484A07DA1B884FF4A0705B
:104D70005B429BB290FBF3F30AE0188800B2002874
:104D80000DDD1B884FF4A0701BB290FBF3F39BB2B8
:104D900013803E4B186813889BB2034401E0002344
:104DA00013800B600CE100232B60E3720323A372DA
:104DB00009234AE00023E3720323A372112344E092
:104DC0000023E3720323A37212233EE00023204951
:104DD000DA00496821FA02F2F2540133042BF6D1C9
:104DE0005AE6B37872781B0443EA02233278F078EB
:104DF000134343EA0060FFF7EBFB0120144BD5E0BF
:104E0000132333703723737048E0114B5B69003311
:104E100018BF0123F9E60A880D4B003218BF0122A2
:104E20005A61CDE002F0D2FD014628B13046402261
:104E300004F0DCFE40232FE6307001202860BDE83E
:104E4000F08100232B60A3720A23A37492E000BFB9
:104E50004C040010B0A8000073A00000A8140010BB
:104E6000281500101810001098C0092072110010A9
:104E70000B10001009100010A714001024100010CF
:104E8000A4140010DC140010201000101C100010DE
:104E9000087803F0DBFD030A337070700223FBE532
:104EA0000878498803F0DBFD8AE03B88A34240F2A2
:104EB000878003236343F21851789278F05C42EACA
:104EC0000121013403F0CBFDE4B2EEE700242046DB
:104ED00003F0BCFD34700134E4B2030A2E2C73706D
:104EE000B07006F10306F2D18723D5E5B2793748D1
:104EF00007323146D2B204F079FE10235DE618463F
:104F000004F07EFB324B3146226A186004F06EFEDC
:104F10000C23A0E54FF4C37004F072FB2C4B314618
:104F2000226A186004F062FE236A6362142392E529
:104F3000216A284A8B4208DA2548526A0068F15CE7
:104F40000244D1540133DBB2F2E74FF4C37313626E
:104F50000C23937434E0062004F052FB1C4B3146C2
:104F60000622186004F042FE1323A3740023E372A8
:104F70000323A37202F0E8FC174B188880B202F0FA
:104F8000EBFD1DE07279144B012083F83820327953
:104F900083F83920F27883F83A20B27883F83B20FE
:104FA000727883F83C20327883F83D201864BDE89D
:104FB000F0810B78E37403E00D23A3740B78237561
:104FC0000120BDE8F0810020BDE8F081281000102C
:104FD000E0140010340E00104C04001010B504460C
:104FE00002F0DAFC28B9064B597841F004015970F7
:104FF00010BD2146402204F0F9FD012010BD00BF84
:10500000340E00102DE9F04106460F46904602F09E
:10501000A9FC104D044628B96B7843F004036B706B
:10502000BDE8F0810C4B06701B8800269BB2623BEA
:10503000C670C0F8048083708672C6723946322208
:105040000E3004F0D3FD6B786E7063700120BDE804
:10505000F08100BF340E00104C04001070B54FF00A
:1050600040231B68DB077FD54049414B08681A681D
:10507000024401320A6000221A603E4A0C683E4B2C
:10508000967AD869154616B1967A012E05D10B6825
:105090005E0637D10123EB7234E0957A022D03D1FD
:1050A0000B68DC072ED42BE0957A032D1CD11D7ED6
:1050B000032D27D1201A800724D1188C80B2013803
:1050C00080B21884188C80B248B90120D0729A8CB2
:1050D00092B2024492B29A845A8C1A8412E0274BFC
:1050E0004FF480721A600DE0907A05280AD12448A6
:1050F0000468B3F848000B6880B22044984201D19C
:105100000123D3721F4A204B1068C0B1188880B2A7
:10511000A8B90C681068844211D31C48008800B2FA
:105120000028ACBF012041F6690018800C681848BF
:10513000046004681748008880B220441060188812
:1051400040F6344280B2904202D90A6802320A60C4
:105150001988114A89B201F63441116000221A807F
:1051600001224FF040231A6070BD00BF24100010D0
:1051700018100010340E00104C0400103CC0092020
:1051800000100010DC14001072110010A4140010A4
:105190001C1000102010001018400040084B042282
:1051A0001A60084B4FF080521A60074B01221A70A8
:1051B000064B9A7A022A04BF00221A74704700BF75
:1051C000AC8002409CC0092021150010340E001054
:1051D00010B52E4B5A7C012A1DD05A7C082A1AD0B1
:1051E0005A7C042A17D05A7C092A14D05A7C112AD6
:1051F00011D05A7C122A0ED05A7C0A2A0BD05A7C23
:105200000C2A08D05A7C142A05D05A7C132A02D0C2
:105210005A7C0F2A39D11E4A1268D00735D51D4A4B
:105220001268D10726D51C4A012111609A7A022AF8
:1052300003D11A4A4FF080511160194A1948116878
:105240000068C1F3130140F6354404FB01015960C5
:105250001268C2F307529A70134A128892B21A81E6
:10526000124A134B1168186810601960114B1A68C4
:1052700001321A60104B1B68DA0706D50F4B01226A
:105280001A600F4B1A6801321A6010BD340E0010FC
:1052900000400050044000500840005098C00920D1
:1052A00024100010084000404C040010641000104E
:1052B00080110010041000100C40005010400050ED
:1052C0001C1500102DE9F04790B005460F4690469A
:1052D0000021684640221E46FEF7AAFF0DF1FF306E
:1052E0000DF103010022EBB242702D0A072403F0F6
:1052F000010E0EFA04FE14F1FF344EEA0202D2B29D
:105300004FEA5303F3D200F8012F8842EAD1A6F105
:105310006200C0B202F01EFA524B00241B5CBC4279
:1053200024D20DF1000C18F80420A4440720002119
:10533000DFF830E102F001099E449EF828E00133D5
:1053400089EA0E094FF07F0EB3FBFEFA0EFB1A330B
:1053500009FA00FE10F1FF304EEA01014FEA520255
:10536000C9B2E5D28CF804100134D8E70D2047F615
:10537000FF7103F074FB122042F6223103F06FFB41
:10538000142041F24B3103F06AFB202040F601412A
:1053900003F065FB0220314603F061FB0520072185
:1053A00003F05DFB0320402103F059FB142123206F
:1053B00003F055FBE9074CBF4AF6AA2145F25551C7
:1053C0002D2003F04CFB082003F040FBC0F3080144
:1053D0000437044641F49C410820FFB203F03FFB30
:1053E00003F00EFC4206FBD5612003F010FC03F035
:1053F00007FC4307FBD51C4B4FF480721A608022D8
:105400001A620E2003F022FB00F01F000F28F8D1D3
:10541000632003F0FCFB154B1B685E07FBD42E2FAB
:1054200034BF38462E20694603F05AFB0E2003F0A5
:105430000DFB00F01F000F28F8D10D4B4FF48072C8
:105440001A60642003F0E3FB03F0DAFB4507FBD4AA
:10545000084B80221A600820214603F000FB10B0A0
:10546000BDE8F087CC9F000038C0092054C0092057
:105470003CC009205CC0092008B50D2047F6FF712B
:1054800003F0EDFA122042F6223103F0E8FA14207C
:1054900042F24B3103F0E3FA202040F6014103F0E1
:1054A000DEFA05200B2103F0DAFA0320402103F095
:1054B000D6FA03F0A5FB4306FBD5612003F0A7FB5A
:1054C00003F09EFB4007FBD5084B4FF480721A6037
:1054D00080221A620E2003F0B9FA00F01F000F2894
:1054E000F8D16320BDE8084003F091BB38C0092023
:1054F00038B55F4C0023E3725E4B5F4A1968116058
:10550000A27A4AB9022003F0A1FA5C4B1B889BB235
:10551000013B98427FD138BDA27A012A31D1584B44
:105520001978584B1878554B1A8892B2203292B29B
:105530001A801A8892B2B2F51B6F04D91A8892B2F7
:105540004F3A92B21A80002965D0002863D01A8899
:105550001D8892B2A2F66213082293FBF2F34A4A24
:10556000ADB2D25C494BA5F662152B40002B03DA95
:10557000013B63F00703013342FA03F3DD07D2D5A1
:1055800049E0A27A052A2DD13D4B19783B4B1A8868
:1055900092B2203292B21A801A8892B2B2F51B6F80
:1055A00004D91A8892B24F3A92B21A804F2932D057
:1055B0001A88188892B2A2F66213082293FBF2F3BB
:1055C000314A80B2D25C314BA0F662100340002B0E
:1055D00003DA013B63F00703013342FA03F3D80710
:1055E000D4D418E0A27A022A05D1186802F014F87F
:1055F000224B18800FE0A37A032B05D11F4D281DE5
:1056000002F0D3F8288006E0A37A042B03D1A28904
:105610001A4B92B21A80642003F0F9FA03F0F0FA00
:105620004107FBD4154D607C2988C0B2022889B29D
:105630001EBF01F1FF31022089B203F010FAA37AF4
:105640001BB1288880B202F087FA612003F0DFFAEC
:1056500003F0D6FA4207FBD501232374637C022BA7
:105660000CBF63206220BDE8384003F0D0BA00BF11
:10567000340E001024100010001000104C04001014
:1056800009100010A71400100B1000100700008074
:105690002DE9F843494B10221A6002F055F903F046
:1056A0004DF902F049FB02F0CDFBFEF795FE02F04A
:1056B00085FA434CA37CA146012B75D13F4B1022A8
:1056C0001A6002F0D1F980253E4F3F4E3B68DFF86B
:1056D00018812BBB062003F0B9F93378C0F30720FB
:1056E00063B16BB2803309D1384B40B293F90050AB
:1056F0003635A842A8BF0546EDB2284640B202F0B2
:10570000CFF9D8F8000002F09BF999F80B3013B1EB
:10571000FFF7EEFED8E7294B4FF480721A60D3E70B
:105720002B4B10222B4D1A602B681BB1637843F072
:10573000020363703B68012B03D9637843F00103D4
:105740006370227C1E4B2AB15A7842F020025A70B4
:1057500000221A74204B188880B202F0C1F9337805
:1057600013B91E4B1B782BB1637843F008036370A9
:1057700000233370154B93F90020194B353293F900
:1057800000309A4203DA637843F010036370154BDC
:1057900000201968FEF7CEFED8F8000002F050F99C
:1057A00000233B602B6084E7A37C082B86D002F0AB
:1057B0006FFBBDE8F84302F017BA00BF3CC00920F8
:1057C000340E0010041000102115001020150010D8
:1057D00038C009201C1500104C0400107011001076
:1057E0000810001080110010241000102DE9FF4156
:1057F000954B0122D3E90245002322402B4052EA77
:1058000003014FF0000745F255534FEAD5764AF6AB
:10581000AA2818BF9846E0B2002F08BF012E14BF77
:105820005526AA26FEF7C6FD8DF80000C4F3072012
:10583000FEF7C0FD8DF80100C4F30740FEF7BAFD86
:105840008DF80200200EFEF7B5FD8DF80300E8B2DA
:10585000FEF7B0FD8DF80400C5F30720FEF7AAFDA2
:105860008DF80500C5F30740FEF7A4FD8DF806008E
:10587000280EFEF79FFD8DF807003046FEF79AFDD3
:105880008DF808007720FEF795FD8DF80900662059
:10589000FEF790FD8DF80A005520FEF78BFD8DF880
:1058A0000B004420FEF786FD8DF80C003320FEF738
:1058B00081FD8DF80D002220FEF77CFD8DF80E0095
:1058C0001120FEF777FD3C468DF80F003B4648FA65
:1058D00003F2C3F10F0102F001028A4001331443C5
:1058E000102BA4B2F3D10D2047F6FF7103F0B7F8E7
:1058F000122042F6223103F0B2F8142041F24B316B
:1059000003F0ADF8202040F6014103F0A8F821464D
:105910002C2003F0A4F82D20002103F0A0F84B4B1D
:10592000022019884A4C89B203F099F805200B210E
:1059300003F095F8237813B90320292104E0237894
:10594000012B1DD10320402103F089F802F09CF9BE
:1059500003F056F94506FBD5612003F058F903F032
:105960004FF94007FBD53B4B80221A600E2003F015
:105970006DF800F01F000F28F8D1632003F047F9FD
:105980001421232003F06BF8082003F05FF8C0F324
:105990000801054641F49C41082003F060F8002608
:1059A000A37C022B45D176082B4F3B68B6EB530FF7
:1059B00005D1E37A002BF7D0FFF79AFDF4E7274BE8
:1059C0001A6840F6C9039A42F3D9254B4FF4807206
:1059D0003E6810201A60694603F082F80E2003F03A
:1059E00035F800F01F000F28F8D11E4B4FF48072DD
:1059F0001A60642003F00BF903F002F94107FBD4AD
:105A000003F0FEF84206FBD5612003F000F903F035
:105A1000F7F84307FBD50E2003F018F800F01F003D
:105A20000F28F8D1632003F0F2F8386802F008F884
:105A3000B6E70D4B80221A600820294603F00FF8C4
:105A400004B0BDE8F08100BF281500104C04001020
:105A5000340E001058C009202410001008400040E7
:105A600038C009203CC009205CC0092008B50F4897
:105A7000FEF7AEFD0E4B0F4ADA600F4A1A610122A3
:105A80005A6100221A845A649A841A765A769A764F
:105A9000DA615A8483F826201A85DA621A865A86D1
:105AA00083F83420DA86054BDA7208BDD6BE898EBB
:105AB0004C04001055555500AAAAAA00340E001037
:105AC00010B5064C002120464FF48472FEF7B0FB5F
:105AD0004FF0FF33C4F8003110BD00BF6810001054
:105AE0002DE9F843694C0123804623706074FFF769
:105AF000BDFF674B4FF080721A60664B10221A6030
:105B000001F022FF02F01AFF02F016F902F09AF9F2
:105B1000FEF762FC02F052F80025A37C434540F0FA
:105B2000A3805A4BDB899BB2D3B1642003F06FF89A
:105B300003F066F84707FBD4574B0220198889B257
:105B4000013989B202F08BFF612003F060F803F0A5
:105B500057F84607FBD5622003F059F80023E3818C
:105B6000E37A4C4E13B1FFF7C3FC02E04FF48073AD
:105B700033601023336001F077FF8027474B484E96
:105B80001A689946D2B93368C3B9062002F05EFF9D
:105B9000444BC0F307201B7863B17BB2803309D13B
:105BA000414B40B293F900703637B842A8BF074660
:105BB000FFB2384640B201F073FFDFE733681BB134
:105BC000637843F002036370D9F80030002B57D09C
:105BD000324B1B68012B03D9637843F001036370D8
:105BE0002D4B188880B201F07BFF2E4B1A7812B92A
:105BF0002E4A127832B16278022542F008026270B1
:105C000000221A70284B93F90020294B353293F962
:105C100000309A4205DA6378022543F0100363707E
:105C200000E06DB32348013D00F5C8714FF4C87220
:105C300003F0DCFFEDB200231F48002200EBC3009D
:105C40001E490F68FF5C0968FF098754CF5C013269
:105C50007F00FFB2082ACF54F2D10133322BEBD1AF
:105C6000A36A1448984758B9154B4FF080721A60D0
:105C7000FEF7BAFC02F00CF9BDE8F84301F0B4BF3E
:105C80000023C9F80030336047E700BF340E00102E
:105C900000E100E03CC009204C040010041000109A
:105CA0001C15001021150010201500107011001097
:105CB000081000108411001014130010801100103F
:105CC00080E100E02DE9F04FCFB0894C0DF10408E0
:105CD0000746002140463222FEF7AAFAE36A854DC4
:105CE000B3F1805F36D303F17043216BE3622A681E
:105CF00022F07F428A42FAD27E4A126822F07F4224
:105D00009A42F4D32B687C4E23F07F4A7B4B4FF0B2
:105D100001094FF0807284F8009086F81890A774FB
:105D200067741A60764B10221A6001F00DFE02F0C3
:105D300005FE02F03FF802F085F8706802F09AFD67
:105D4000FEF79CFB40F69E13A4F80E900AF57A5AD3
:105D50003380ABE02A6822F07F429A42FAD3D1E73F
:105D6000634BDB899BB2C3B1642002F050FF02F0A9
:105D700047FF4207FBD4604B0220198889B202F02A
:105D80006EFE612002F043FF02F03AFF4307FBD5AD
:105D9000622002F03CFF0023E381594B10221A607D
:105DA000A37CBB4240F097800DF1380900214022CE
:105DB0004846FEF73DFA002140221EA8FEF738FAB9
:105DC000002140222EA8FEF733FA3EA800214022EF
:105DD000FEF72EFA4FF0000B5E460F2E0ADC494903
:105DE0002A680968C2F3130240F6354000FB02122C
:105DF00049F80B20A6F110020F2A0CD8414A296855
:105E00001068C1F3130140F6354E0EFB01011EAAC6
:105E10005A4442F8401CA6F120020F2A4BD8394AB6
:105E200029681068C1F3130140F6354E0EFB0101DD
:105E30002EAA5A4442F8801C062002F007FE40F2C7
:105E40002252000A08F806000092009A013A0092D5
:105E5000002AFAD10136322E0BF1040BBDD12A4BA8
:105E600010221A60294B4FF080761E60254B2A685D
:105E70001B6840F6354EC2F313020EFB0232414658
:105E80000820FFF7BFF84846FFF7A8F81EA8FFF75D
:105E9000A5F82EA8FFF7A2F83EA8FFF79FF8174B2A
:105EA0001E602B6823F07F43534514D8A37CBB426C
:105EB0003FF456AF0FE02F2EBEDD124A296810685E
:105EC000C1F3130140F6354E0EFB01013EAA5A44C0
:105ED00042F8C01CB0E70D4B4FF080721A60FEF71D
:105EE00083FB01F0D5FF01F07FFE4FB0BDE8F08FDE
:105EF000340E0010241000104C04001000E100E0EB
:105F00003CC009200840004038C0092080E100E082
:105F10002DE9F04F91B0AB4CAB4D012323702B76A4
:105F2000AA4B4FF0807260741A60A94B10221A605D
:105F3000074601F009FD02F001FD01F03BFF01F011
:105F400081FF686802F096FCFEF798FAA37CBB42DA
:105F500040F0D6819B4BDB899BB2CBB1642002F031
:105F600056FE02F04DFE4107FBD42988022089B27B
:105F7000013989B202F073FD612002F048FE02F09F
:105F80003FFE4207FBD5622002F041FE0023E38181
:105F90008F4B10221A6001F067FD8E4B1A689A46EB
:105FA00042B98D4B1B682BB9E37A1BB9854B9B7C9F
:105FB000BB42F2D0062002F049FD884BC0F3072017
:105FC0001870874B7F4A1870A37CBB4240F09881C1
:105FD000DFF80492D9F80010CB4619B1517841F09E
:105FE00002015170E27A02F0FF01002A40F0DB80EA
:105FF000DAF80020002AA9D0342203A8FEF718F905
:1060000028886A6880B26238C0B2039201F0A2FBAD
:106010004FF0300808FB00F8724A734E02EB08019B
:1060200096F800C001917178B078090496F803E001
:1060300041EA0C6141EA0E0141EA0020009202F0BF
:1060400019FC009A52F808205040C0F3052808F1C6
:106050000208B8F1270F049000F2A58008F10602AB
:1060600092100B2A0DD006EB8206604A1268B242EB
:106070000BD2DBF800100029F7D006E0DBF8002097
:106080001AB95B4A1268D307F8D45A4B61201A68D0
:10609000042622F001021A6002F0B9FD524B721C74
:1060A00013F806E0995CB21C985CF21C9A5C4FEA0B
:1060B000A60B42EA0E6242EA014242EA002002F0E6
:1060C000D9FB019910AB03EB8B0251F82B3004364E
:1060D00058402C2E42F8300CE0D16B6933B99DF852
:1060E0002330DFF82881FF2B38D115E0364B04A987
:1060F0001869424601F0AEFB10AB434413F82E1C66
:1061000013F82F2C090441EA022113F8302C41EA3C
:106110000203984247D1E2E79DF82430532B1DD16A
:106120009DF82530592B19D19DF826304E2B15D1CD
:106130009DF82730432B11D19DF8282042F2107191
:106140004A43D8F8003040F6354123F07F4392FBB4
:10615000F1F223631344E362012600E00026264B9C
:1061600010221A6003A8A3699847244B4FF0807B44
:10617000C3F800B003A90120FEF7DCF9134B204A55
:10618000C3F800B0D8F800301268C3F3130340F628
:10619000354101FB03236B642EB10A4B1220987426
:1061A000FFF790FDACE0612002F031FD114B1A6861
:1061B00022F001021A60134B1B685E0728D5124BB0
:1061C0001B68F8E7340E00104C04001000E100E0FA
:1061D0003CC00920041000101C150010081000100D
:1061E0000A100010BCA00000E91400100441005087
:1061F000104100502400034038C0092080E100E035
:10620000084000400C000340080003402410001028
:10621000424B434A1B68126840F63541C3F31303EF
:1062200001FB03236A6C297E9342A1F1020138BF6E
:1062300003F14343C9B238BF03F5A003012903D8D2
:1062400038499B1A8B4202D8E369012B27D1FFF70B
:106250000DFC354900234FF48070E3610860E17C58
:10626000324A012902D1D374937449E00A2F47D0EE
:10627000012364202B7602F0CAFC02F0C1FC400727
:10628000FBD4B5F84A309BB223B1294BB3F84A305E
:106290009BB201E040F662132B80012363632C2044
:1062A000698902F0DCFB2D20298902F0D8FBE37A12
:1062B0000BB1FFF71DF9E3691C4E002B05DDFFF75D
:1062C000DBF8F369013BF36114E001F073FD01F0C9
:1062D000B9FD736B3BB1686802F0CCFAFEF7CEF8FB
:1062E0000023736306E002F08BFC4107FBD56220BC
:1062F00002F08DFC0023CAF80030C9F8003025E612
:106300000C4B4FF080721A60FEF76EF901F0C0FD81
:1063100001F06AFC11B0BDE8F08F00BF241000103E
:106320000840004080F0FA023CC00920340E001002
:106330004C04001080E100E02DE9F04F9DB00021F9
:1063400007463222A84DA94C02A8FDF771FF012390
:106350002B702376A64B4FF080726F741A60A54B9A
:1063600010221A6001F0F0FA02F0E8FA01F022FDC2
:1063700001F068FD606802F07DFAFEF77FF8AB7C03
:10638000BB4240F0CD81984BDB899BB2CBB16420FE
:1063900002F03DFC02F034FC4007FBD421880220CF
:1063A00089B2013989B202F05AFB612002F02FFC58
:1063B00002F026FC4107FBD5622002F028FC0023F6
:1063C000EB818C4B10221A6001F04EFB8A4B1A684D
:1063D000994642B9894B1B682BB9EB7A1BB9824BA2
:1063E0009B7CBB42F2D0062002F030FB844BC0F312
:1063F0000720AA7C1870834BBA4218707A4B40F081
:106400008F817E4E32681AB15A7842F002025A7079
:10641000EB7A03F0FF08002B40F0D680D9F800306B
:10642000002BACD00FA841463422FDF701FF072016
:1064300002F024FB02AB03F8080008F10108B8F1F0
:10644000320FF4D12088636880B26238C0B20F93F3
:1064500001F080F9DFF8C0B14FF0300A9BF800E09E
:106460009BF801800AFB00FA9BF802104FEA0848EB
:106470009BF8030048EA0E68634A48EA000848EAC5
:10648000012802EB0A0340460193009202F0F2F960
:10649000009A52F80A2050401090404602F0EAF963
:1064A0009DF8412002F03F0A0AF10208B8F1270FD7
:1064B0008DF8392000F288800AF1080A4FEA9A0222
:1064C0000B2A0BD00BEB8203504A12689A4209D276
:1064D00031680029F8D005E033681BB94C4B1B68C4
:1064E000DA07F9D44B4B61201A68042622F0010226
:1064F0001A6002F08CFB484B721C985D06F1030E8B
:10650000995CB21C9A5C13F80E3043EA006343EACC
:10651000014343EA022B5846B210009202F0AAF956
:10652000009A1CAB03EB8201019B043653F8222036
:10653000504041F8300C584602F09CF92C2EDAD12C
:10654000636973B9354B10221A600FA8AB6998477D
:10655000334B4FF080721A609DF84630552B24D192
:1065600017E0224B10A91869424601F073F91CABE1
:10657000534413F8342C1CAB434413F82F1C09026A
:1065800041EA024113F8302C41EA020398421BD140
:10659000D8E79DF84730EC2B07D10FA90120FDF774
:1065A000C9FF072002A9FDF7C5FF114B4FF080720C
:1065B0001A601C4B1C4A1B681268C3F3130340F695
:1065C000354101FB03236364612002F020FB114B82
:1065D0001A6822F001021A60144B1B685B0729D568
:1065E000134B1B68F8E700BF340E00104C0400107A
:1065F00000E100E03CC00920041000101C15001050
:10660000081000100A100010BCA000000441005047
:106610001041005024000340E914001038C0092044
:1066200080E100E024100010084000400C0003400E
:1066300008000340414B424A1B68126840F635414E
:10664000C3F3130301FB0323626C217E9342A1F188
:10665000020138BF03F14343C9B238BF03F5A003B9
:10666000012903D837499B1A8B4202D8EB69012BC9
:1066700025D1FFF7FBF9344900234FF48070EB611B
:106680000860E97C314A012902D1D374937447E050
:1066900001236420237602F0BAFA02F0B1FA460729
:1066A000FBD4B4F84A309BB223B1294BB3F84A303B
:1066B0009BB201E040F6621323800123AB632C20E0
:1066C000618902F0CCF92D20218902F0C8F9EB7A1A
:1066D0000BB1FEF70DFFEB691C4E002B05DDFEF73D
:1066E000CBFEF369013BF36114E001F063FB01F0C1
:1066F000A9FBB36B3BB1606802F0BCF8FDF7BEFECE
:106700000023B36306E002F07BFA4007FBD562206A
:1067100002F07DFA0F4A0023C9F8003013602EE61C
:106720000D4B4FF080721A60FDF75EFF01F0B0FB79
:1067300001F05AFA1DB0BDE8F08F00BF2410001020
:106740000840004080F0FA023CC00920340E0010DE
:106750004C0400101C15001080E100E010B5FFF79C
:1067600085F9044C044B0920A361FFF7D1FB0023FA
:10677000637410BD340E00109947000038B504460C
:10678000FFF774F9084B094A112C9A611D4603D191
:106790002046FFF7D1FD04E0122C02D12046FFF77E
:1067A00091FA0023AB7438BD340E001099470000F5
:1067B00070B58EB006460D46144601A8002132225F
:1067C000FDF736FD2946312C34BF224631220DF12A
:1067D00005008DF8046003F009FA01A90520FDF712
:1067E000A9FE0EB070BD000038B5314A40F6641302
:1067F0001188304C89B299420DD12F4B2F4A1B681A
:106800001268C3F3130340F6354101FB0323E3632E
:1068100040F6661348E0108840F6661180B2884260
:1068200042D1254B25491B68096840F63540C3F322
:10683000130300FB0313E06B528C83423CBF03F154
:10684000434303F5A0031B1A43F2D40541F66A0043
:1068500000FB02335543B3FBF5F3242B144921D835
:1068600017485208034493F870080A848876252252
:10687000013090FBF2F502FB150200238B84CB6103
:10688000E37203204B610F4B4A76087601221A31DE
:10689000A361A072FFF78CFFE37C43B1054B282274
:1068A000DA6138BD40F66413A3810123E37238BD79
:1068B0004C040010340E001024100010084000405A
:1068C000CC9F00009947000038B5254B40F6354273
:1068D0001C68244BC4F313041B68234D02FB0434CF
:1068E0002B6C9C4205D204F14344A4F56514A4F535
:1068F000A254E31A46F2A712934230D91B4AD2F8A7
:1069000000118B4238BFC2F80031D2F8002118497B
:1069100002F5613202F25232B2FBF1F2154992B243
:10692000488C124B904215D1D3F804210132052A2C
:10693000C3F8042112D1104B0220AB6140F664135E
:10694000AB810423AB72223101230246EB72FFF7C5
:106950002FFF03E04A840022C3F804212C6438BDD1
:106960002410001008400040340E00106810001081
:10697000A40E07004C040010E967000038B5184C5D
:106980000146636953BB0379012B27D145792DBBA0
:10699000037AC0790222000240EA03408B79043175
:1069A000184300F02DFF2A46E0602B4620FA03F141
:1069B000C3F1170501F00101A9400133182B42EA88
:1069C0000102F3D12261074B074A01209A616061FD
:1069D00006490322BDE83840FFF7EABE38BD00BFD4
:1069E0004C040010340E0010C96800005804001058
:1069F00030B50022144D55F8321005EBC203814228
:106A000002D15A6801321CE00132202AF2D14FF043
:106A1000FF331946002205EBC20464688C4205DB93
:106A20000029A8BF0C46B8BF134600E01346013248
:106A3000202A01D02146EEE745F83300012205EB7C
:106A4000C3035A6030BD00BF681000102DE9F04349
:106A500095B000218046402204A8FDF7E9FB012300
:106A60008DF810308DF820308DF823308DF83030CF
:106A70008DF832308DF840308DF842308DF843304B
:106A800014AD04AC504E514F308880B26238C0B261
:106A900000F060FE3A5C0023B918E05C91F8281021
:106AA00001324140E1547F210133B2FBF1F0102B60
:106AB00001FB1022F0D11034AC42E3D108F12005E3
:106AC00008F53C78424B6C460FCB8DE80F00002256
:106AD00004AB03EB8201002315F803C0C85C8445B6
:106AE00002D00023A35002E00133102BF4D1043272
:106AF000102AEDD10023E2581AB90433102BFAD131
:106B00003EE0308880B26238C0B200F023FE385CCC
:106B10000023002105EBC30C0A460CEB0204032BF7
:106B200014F8204C0CDD07EB000E9EF828E0013035
:106B300084EA0E044FF07F0EB0FBFEF90EFB190045
:106B4000944001322143082AC9B2E6D1214C22687F
:106B5000D15401330A2BDCD12368D97823689B7880
:106B600022681B045078226843EA016312781343B9
:106B700043EA0020FFF73CFF21680120FDF7DAFC23
:106B8000013545459ED10023134A02EBC3014968F4
:106B9000032911DD52F83300FDF71AFD0F4B104A9F
:106BA00000249A620F4A20469A610F4904227461B8
:106BB000FFF7FEFD204603E00133202BE4D1012046
:106BC00015B0BDE8F08300BF4C040010CC9F00005E
:106BD00064A800008011001068100010340E00102E
:106BE000954600007D6900005004001038B5164D30
:106BF000AB7C0A2B26D1154CFEF762FF2388DB07FE
:106C000044BF40F688132380236C4BB90F4B188880
:106C100080B200F0A1FF0E4B0A20AB62FEF760FFCE
:106C2000AD7CEDB20A2D0DD100200A490422FFF7F8
:106C3000BFFD094A044B28469A6100236361FFF7B0
:106C400067F9D4E738BD00BF340E00104C040010C3
:106C50004D6A0000500400107D6900002DE9F04FDE
:106C60008BB0864905AA8B880868ADF81030039070
:106C70008B1D01F1160518685968144603C40833C2
:106C8000AB422246F7D118687D4A20601468002381
:106C900092467C49E05C01F1440298540133062B92
:106CA0008B46F6D10A6A0B23A2F1060898FBF3F68D
:106CB000102A03FB168804DDB8F1000F03D001365B
:106CC00002E0012600E09846B500284602F098FC54
:106CD0000027044606F1FF394F4506DA222002F06C
:106CE0008FFC44F827000137F4E708F1170002F0A1
:106CF00087FC043D605100252F46B74266DA002329
:106D000005A8C15C6259D1540133142BF8D1052375
:106D10005D496259C85CC3F1070113F1FF33505458
:106D2000F6D263599DF827205E7463593A444F4563
:106D3000DA7414DA0B2179431423DAF800200A44B8
:106D40001A4412F80E0C6259D05401331F2BF4D19F
:106D500062591D21517062591221117321E04FF0C7
:106D60000B0E5FFA88F20EFB07FED31DDBB202F1B9
:106D700012000193C0B2002343450BDA4049096871
:106D80001944714491F806C06159194481F814C03E
:106D90000133F1E76359143258706359019818733D
:106DA000D3B23A4A615910691A46009300F00CFDBB
:106DB0006259009B010AD0546259000C1A44517068
:106DC0006259013713449870043596E700F05CFF70
:106DD0009BF812202B4B0C2A33D19A7C5B7C9A4275
:106DE0002FD12B4B4FF080721A604FF080621A60E7
:106DF00000270025B54213DA4D4503AB02DA2548DA
:106E0000222103E008F117012248C9B254F82520D5
:106E1000DB5BFEF757FA0A20FDF7B6FA0135E9E722
:106E200005200237FDF7B0FA062FE2D11A4B4FF0DA
:106E300080721A604FF080621A600A20FDF7A4FA8F
:106E4000C6E7DAF8000002F0E3FB204602F0E0FBC0
:106E50000025B54205DA54F8250002F0D9FB0135CA
:106E6000F7E70B4B4FF080721A60FDF7BDFB01F0A6
:106E70000FF80BB0BDE8F04F00F0B6BE74A80000EC
:106E8000E0140010340E0010780E00104C040010B6
:106E900080E100E0D6BE898E00E100E02DE9F041FE
:106EA00088B03A4B01AA03F11806154618685968CC
:106EB000144603C40833B3422246F7D11B781C2082
:106EC000237002F09DFB00230446EA5CE254013388
:106ED000192BFAD100232E4FC3F105013A68515CFA
:106EE000E2180133062B9170F5D100F0CDFE294B4D
:106EF0004FF080721A60284E4FF080621A6032683C
:106F0000264B22F07F421A6302F54872DA62FA25B4
:106F10009846234B214618691922257600F054FC27
:106F2000030A6076000CA376E07640F662131D48F3
:106F30001C212246FEF7C6F9336823F07F431E3337
:106F4000326822F07F429A42FAD30A3DEDB23C2DDC
:106F5000DFD1154B4FF080624FF080751D602046E9
:106F60001A6002F055FB386802F052FB122088F8D4
:106F70001200FFF703FC074B1D60FDF735FB00F027
:106F800087FF08B0BDE8F04100F02EBE8EA80000DB
:106F9000E014001080E100E024100010340E001016
:106FA0004C040010D6BE898E00E100E000B58BB025
:106FB0002D2001F04BFD030A8DF805002C208DF8E3
:106FC000043001F043FD030A8DF806308DF8070008
:106FD00000F0BAFC00F058FE01F012FE4006FBD5AE
:106FE000612001F014FE01F00BFE4107FBD5144BAC
:106FF00010221A6080221A624FF480721A620E20E8
:1070000001F024FD00F01F000F28F8D1622001F0EC
:10701000FEFD0C4B02221A6001F0F2FDC206FBD508
:10702000074B02221A6002A9202001F0A1FD01A94C
:107030000020FDF77FFA044B186800F001FDDEE741
:1070400038C009203CC009202410001008B52020B9
:1070500001F0FCFC08B1FFF7A9FF034B03221A70F3
:10706000BDE80840FEF714BB340E00102DE9F041D6
:10707000354D10232D206E7C6B7401F0E7FC8046AB
:107080002C2001F0E3FC314C074621882D2001F033
:10709000E6FC2C20618801F0E2FC0320572101F07E
:1070A000DEFC142041F24B3101F0D9FC202040F6E7
:1070B000617101F0D4FC0220A18801F0D0FC052010
:1070C000E179F6B201F0CBFC01F09AFD4206FBD566
:1070D000612001F09CFD01F093FD4307FBD51C4BA3
:1070E0004FF480721A6080221A620E2001F0AEFC0A
:1070F00000F01F000F28F8D1A079164901F0F0FC2C
:10710000632001F084FD0E2001F0A0FC00F01F00C0
:107110000F28F8D1104B4FF480721A60642001F0F0
:1071200076FD01F06DFD4407FBD40C4B80221A6004
:107130002D20414601F093FC2C20394601F08FFCB4
:10714000AE74BDE8F08100BF340E001028100010AE
:1071500038C00920301000103CC009205CC0092054
:107160002DE9F0418EB03D4B10221A6000F0ECFB8F
:1071700000F08AFD3A4B80221A60122042F622313A
:1071800001F06DFC142041F24B3101F068FC20202D
:1071900040F2011101F063FC0320292101F05FFCA2
:1071A00001F02EFD4406FBD501F02AFD00F004009D
:1071B00000F0FF050028F7D12A4B9B7C042B47D118
:1071C000294BB3F84C409846A4B2B8F84E309BB265
:1071D000A342F1DB611E022089B201F040FC612074
:1071E00001F015FD01F00CFD4007FBD5622001F018
:1071F0000EFD4FF4FA730093009E013E0096002EA0
:10720000FAD10EAB032707FB05370620230A07F840
:10721000343C07F8334C01F019FC0135EDB2000A9B
:10722000102D07F8320C09D104200DEB0001FDF7F9
:1072300081F90E4B3546186800F002FC642001F01D
:10724000E6FC01F0DDFC4107FBD40134A4B2BCE74D
:10725000074B10221A600EB0BDE8F08138C009203B
:1072600058C00920340E00104C04001024100010E7
:107270003CC009201FB5444B802218689B880290AF
:10728000ADF80C30414B12201A6042F6223101F069
:10729000E6FB142041F24B3101F0E1FB202040F2EB
:1072A000011101F0DCFB0320292101F0D8FB0620AD
:1072B000F12101F0D4FB01F0A3FC4106FBD501F064
:1072C0009FFC00F0040000F0FF040028F7D1304BD1
:1072D0009B7C072B55D104AA02EB440333F8081C0E
:1072E0000220013989B201F0BAFB612001F08FFC64
:1072F00001F086FC4207FBD5622001F088FC4FF4C8
:10730000FA730193019B013B0193002BFAD10620F4
:1073100001F09CFB1F4B40F3072093F850305BB209
:1073200098420CDD012C07D003D3022C16D11A4B46
:1073300013E04FF4807200E01022174B0BE0012C99
:1073400007D003D3022C09D1144B06E04FF480720E
:1073500000E01022114B1A6000E01C60032301348E
:1073600094FBF3F203FB12440D4BE4B2186800F0F7
:1073700067FB642001F04BFC01F042FC4307FBD4A7
:10738000A5E704B010BD00BFA8A8000058C00920A0
:10739000340E00104C04001038C009203CC00920F5
:1073A0002410001010B501F0F5FC00F073FC484803
:1073B00000F0A4FAFDF718F9464B474C186800F0A6
:1073C0003FFBA27C637C9A42F6D0A37C132BF3D8BC
:1073D00001A252F823F000BFB57300003974000019
:1073E000437400007D740000A77400008B740000DB
:1073F0009B740000AD7400004D74000051740000D7
:10740000637400002974000069740000B374000004
:1074100035740000BF740000C97400005774000088
:107420005B74000073740000012001F03DFA01F06C
:10743000BBFCC1E70E2300E001236374FEF728F9CB
:10744000BAE702236374FEF7D1F9B5E70823F4E73E
:10745000FFF784F9B0E7112000E01220FFF78EF962
:10746000AAE7FFF7C3FBA7E70C236374FFF7F6FB5C
:10747000A2E713236374FFF711FD9DE7032316486A
:107480001649637400F016FF96E7052313486374EA
:1074900000F014FD0023A3748EE706230F486374E5
:1074A00000F050FE88E7FFF75BFE85E7FFF7E2FE9E
:1074B00082E70D236374207D01F064F97CE70F23DC
:1074C0006374FFF7C3FD77E7FFF7D0FD74E700BFF4
:1074D0000949000024100010340E00104C04001064
:1074E000F0B5424B4248196800220023C0E900234E
:1074F000002358004F2290FBF2F402FB14023D4E91
:107500009A5501334F2BF4D13B4BC1F3C4521A703F
:10751000C1F30714C1F3C700384BC1F3C34200F0F5
:10752000080504F010071A702F44C1F3870201F018
:107530000105C1F347032F4402F004052F4403F073
:1075400002052F442E4D04F008042F702D4DC1F379
:1075500088272F808F09CD0907F0200705F0400507
:1075600049093D4401F0100129440C4400F0040095
:10757000204402F00202024403F0010322491344B2
:107580000B70224B1B7883B30024A446204F0023AA
:10759000E25D002552EA030108D012F1FF3043F109
:1075A000FF31013502400B40EDB2F3E70134654491
:1075B0000A2CEDB201D0AC46E8E7164B1D70002353
:1075C0001A464F2193FBF1F001FB1030C1B2CC08F9
:1075D0003C5D00F0070044FA00F0C00702D5501CE3
:1075E000B154C2B202339E2BEBD1F0BD281500106E
:1075F000781100108D1500108B1500103815001033
:107600008C1500103A150010DC150010A71400109E
:107610000B10001009100010F0B587B0C0F3D802AD
:107620004F2122F00F02B2FBF1F701FB17273F4970
:10763000C0F3400391F800C01F215E014B438CEA68
:10764000104C0CF01F0C8CEA030C394BB6B21C78B2
:10765000384B84EA50541B7804EB90045C40364B62
:107660000C401B8883EAD010C0F3080080B20023CE
:1076700040FA03F102AD01F0010159550133092B24
:10768000F6D100234CFA03F0E918013300F00100B1
:10769000052B4872F6D1002344FA03F101F00101F1
:1076A0000DF803100133052BF6D10D23E95C79B1F8
:1076B000224906A85C5C0E310444585C06A90844C3
:1076C00014F818CC10F8181C04F8181C00F818CC82
:1076D00013F1FF33EAD200210B461DF80300984056
:1076E00001330144052BC9B2F7D1154B37441B7840
:1076F00019440F444F23B7FBF3F003FB1077114BF2
:10770000D85D114B1B786BB1104B1B78B2FBF3F0BB
:1077100003FB102216440E44B6FBF3F103FB116683
:107720000B4B985D00F6621007B0F0BD8C15001091
:107730008B150010381500103A150010BBA800007A
:10774000DC1500108D150010A71400100910001092
:107750003C15001040080AD00B2801D8013804E07D
:107760000C2806D0262806D80238C0B2704725203B
:10777000704726207047272070470A2802D800F259
:10778000B24003E0242803D800F2B3404000704721
:10779000252807D040F67A1326280CBF18464FF448
:1077A0001B60704740F66210704738B5457D04464F
:1077B0002846FFF7E2FFA27D25232A4492FBF3F13E
:1077C00003FB1123637538BD70B5002320F07F40A3
:1077D000934214DACD5C082485EA000616F0010F06
:1077E0004FEA55054FEA500005D040F4000080F400
:1077F000B40080F4C040013CEED10133E8E770BD35
:1078000070B5013A002A14DB8D5C0723C40D4000DB
:1078100020F07F4645FA03F000F00100604030435D
:107820001CB180F4340080F4404013F1FF33EDD2FA
:10783000E7E700231A4620FA03F1C3F1170401F029
:107840000101A1400133182B42EA0102F3D1104695
:1078500070BD000030B5002320F07F40934209DA6C
:10786000CD5C054C4540EDB254F82540013384EA27
:107870001020F3E730BD00BFA004001013B50B4685
:1078800041881268ADF8041081884078ADF8061080
:1078900004490C6801A9A047431E5842584102B050
:1078A00010BD00BFE436001030B587B001AD04460E
:1078B0006946284601F0AEFA9DF80420E2B9234655
:1078C0000132A95C00200C09092C01F00F0186BFD0
:1078D0005734E4B23034092986BF5731C9B2303148
:1078E000102A83F87C4083F87D0083F87E1083F8AB
:1078F0007F0003F10403E3D107B030BD38B50D4C70
:10790000054601F065FB2046FFF7CEFF204601F05B
:107910009DFD094B094A022009491D6001F04EFBFB
:107920000849FF2001F078FD012001F0E6FB00206E
:1079300038BD00BFA0080010E4360010E03500108C
:107940007D780000D7A80000044B002104484FF4C4
:10795000005219605960FCF76BBC00BF800E00102C
:10796000E01500100A4B1968586801F07F0100F01B
:107970007F00421C02F07F02914206D05A68013219
:107980005A60044B03EB801070470020704700BF23
:10799000800E0010E01500100A4B1968586801F0BD
:1079A0007F0100F07F00421C02F07F02914206D06E
:1079B0005A6801325A60044B03EB80107047002074
:1079C000704700BF800E0010E0150010084B1868CB
:1079D0005A6800F07F0002F07F02904206D01A68D9
:1079E00001321A60034B03EB801070470020704790
:1079F000800E0010E015001037B50546FFF7E6FFD2
:107A00000D4B044638B18220214640229D6001F092
:107A1000A5FB01200EE09A680849AA1A8A4208D9F3
:107A2000032202A901F8012D822001229D6001F0AC
:107A300095FB204603B030BD800E0010801A060072
:107A400038B50446822001F063FB8106054602D466
:107A50002046FFF7D1FF6A0602D42046FFF7CCFF8D
:107A6000BDE8384001F0E6BB08B59E22074800217A
:107A7000FCF7DEFB064A00231370064A1360064B30
:107A800080221A70054B7F221A7008BD8C0E0010E0
:107A9000A6140010E8360010081000100A1000109C
:107AA0000B4B93F900209042A8BF02461A70094B75
:107AB00093F900209042B8BF02461A70064B1A682C
:107AC00002EB00201860054B1A7801321A707047DB
:107AD000081000100A100010E8360010A61400105C
:107AE00010B540F66213B0F51B6F38BF18460D4B4A
:107AF000A0F662101B7823B10B4A1268803292FB09
:107B0000F3F30324094A634332F91010FD2404FB04
:107B100001334FF48071803393FBF1F322F810307E
:107B200010BD00BFA6140010E83600108C0E001027
:107B300040F66213B0F51B6F38BF1846054AA0F631
:107B4000621332F913004FF48073803090FBF3F02E
:107B500040B270478C0E001038B5154D2C7863B2CA
:107B6000002B05DDFFF7E4FF2C78363C2044C4B23F
:107B70006FF0770364B29C42B8BF1C466FF01303EA
:107B80009C42A8BF1C46E4B204F1380101F0FC019C
:107B9000062041F0030100F062FF064B1C7064B246
:107BA00014F1770F044BACBF002401241C7038BDC6
:107BB000A81400102015001070110010074B0022AF
:107BC0001A70074B4FF400121A60064B04221A6019
:107BD0009A6842F004029A60704700BF21150010B5
:107BE00000E100E0AC800240074B1A6822F004027A
:107BF0001A60042243F8082C044B4FF400121A6058
:107C0000034B00221A707047B480024080E100E00C
:107C10002115001008B5FFF7E7FF044B00221A708A
:107C2000034A88231370034A137008BD70110010B3
:107C3000A8140010201500100A4B02221A600A4AEC
:107C400000231360094A1360094A1360094A13802C
:107C5000094A1380094A1380094A1360094A1360CC
:107C6000704700BF044000402410001000100010B6
:107C70001810001072110010A41400102010001031
:107C80001C100010DC140010014B01221A60704718
:107C90000440004008B5FFF7CFFF064B04221A60EE
:107CA00002F54362DA6003229A60034B02221A60F3
:107CB00008BD00BF0C40004000E100E0154B4FF054
:107CC00080621A60144A00231360136213641366FF
:107CD000C2F88030C2F8A030C2F8C030C2F8E0303C
:107CE000FF23A2F58472136093600C4B1A6822F094
:107CF00001021A601A6812F00102FBD1084B1A60E7
:107D0000084B1A60084A094B1A60094A094B1A6065
:107D1000704700BF80E100E010410050304000504B
:107D2000041000101C150010E9140010641000105D
:107D3000A91400108011001008B5144B1A6842F005
:107D400000521A60FFF7BAFF114B124A12485A60EC
:107D5000124A13491060186012489A60D16050604E
:107D60009360114AD960012111601168C907FCD5DF
:107D70001A680E490A605A684A609A688A60DA6826
:107D80000B4B1A604DF206025A6008BDC4C00F408A
:107D9000AC370010E9140010080003409C370010B5
:107DA00032900088A914001030400050004100506B
:107DB0000C41005008B51A4B1A6842F000521A6084
:107DC000FFF77CFF174B01221A601A68D007FCD519
:107DD000154B0022154943F8101C154901EB82018F
:107DE00043F80C1C0A2A14BF1946002143F8081C4A
:107DF000013210490B2A43F8041C03F11003E9D1A6
:107E00000D4B0E491A680A605A684A609A688A607F
:107E1000DA680B4B1A604DF206025A6008BD00BFCB
:107E2000C4C00F4030400050FC3600100800034032
:107E3000E914001004100088EC36001000410050D6
:107E40000C4100500D4A4FF0805313600C4A1168EA
:107E500041F00101116052F8201C41F0020142F88A
:107E6000201C084A116841F001011160064A4FF0D8
:107E700080611160054A1360704700BF98C00920F7
:107E8000240003401041005000E100E09CC00920A4
:107E9000084B4FF080521A60074B1A6822F001021B
:107EA0001A6053F8202C22F0020243F8202CFFF72E
:107EB00005BF00BF98C00920240003402DE9F0470A
:107EC00096B000AF152387F84030002387F8413083
:107ED00081463A2307F1580040F8583D944B384604
:107EE00007F114011B6898473A7DEA46002A40F0E2
:107EF0001B81BB691220190E87F84210190C87F8F4
:107F0000431087F84530190AFB6987F84410190EA9
:107F100087F84610190C87F8471087F84930190A76
:107F20003B6A87F84810190E87F84A10190C87F831
:107F30004B1087F84D30190A7B6A87F84C10190EE0
:107F400087F84E10190C87F84F10190A87F850104F
:107F500087F8513042F62231FF2387F8522087F804
:107F6000532087F8543087F8553000F078FD1420FE
:107F700041F24B3100F073FD202040F6F15100F04A
:107F80006EFDB9F80010022089B200F068FD2D20C6
:107F90004FF6AE1100F063FD2C2041F2845100F049
:107FA0005EFD0520082100F05AFD0320292100F084
:107FB00056FD00F025FE4606FBD5612000F027FEA9
:107FC00000F01EFE4507FBD55A4B4FF480721A6035
:107FD00080221A620024052044F0080100F03FFDD1
:107FE000002587F8524087F853500E2000F02EFDF0
:107FF00000F01F000F28F8D1002607F1400818F8FC
:1080000006107020013600F065FD162EF5D16320B4
:10801000013500F0FCFD102DE5D10134E4B2082C4F
:10802000D9D10E2000F012FD00F01F000F28F8D16A
:10803000414B4FF480721A60642000F0E8FD00F0BC
:10804000DFFD4407FBD4B9F80010022089B20139E2
:1080500089B200F004FD00F0D3FD4006FBD561209D
:1080600000F0D5FD00F0CCFD4107FBD5314B1022CF
:108070001A600E2000F0EAFC00F01F000F28F8D173
:10808000622000F0C4FD00F0BBFDC206FBD5294B09
:1080900002221A600024702000F0E6FC07F1280597
:1080A00028550134162CF6D100F0AAFD030702D49E
:1080B0000222214BDCE70E2000F0C8FC00F01F007C
:1080C0000F28F8D1642000F0A2FD00F099FD00F027
:1080D000040000F0FF030028F7D1184A8021116046
:1080E000102142F8201C97F83A00154A01215070DF
:1080F00097F83B0087F84110907097F83C00D070DB
:1081000097F83D001071EC5C18F80300844218BF2A
:10811000991C03F1010318BFC9B2122BF3D1064B0E
:10812000117002221A60D5465837BD46BDE8F08767
:1081300054A9000038C009203CC009205CC00920B7
:10814000E4140010F0B587B00746122042F6223141
:1081500000F085FC142041F24B3100F080FC39889E
:10816000022089B2013989B200F079FC2D204FF646
:10817000AE1100F074FC2C2041F2845100F06FFC31
:108180000520082100F06BFC0320292100F067FC8A
:1081900000F036FD4306FBD5612000F038FD00F00D
:1081A0002FFD4607FBD5414B10221A604FF4807219
:1081B0005A6002225A6080221A620E2000F046FCA9
:1081C00000F01F000F28F8D1394B02221A606220FC
:1081D00000F01DFD00F014FDC506FBD5334B022257
:1081E0001A600024702000F03FFC0DF804000134F8
:1081F000162CF7D100F004FD0407DED52C4B02222B
:108200001A6010221A60642000F001FD00F0F8FCF2
:108210004007FBD400F0F4FC4106FBD5398802206E
:1082200089B200F01CFC00F0EBFC4206FBD561209B
:1082300000F0EDFC1D4B4FF480721A6015238DF891
:10824000003001238DF801300024052044F008019E
:1082500000F005FC00258DF814408DF815500E2017
:1082600000F0F4FB00F01F000F28F8D100261DF8E5
:1082700006107020013600F02DFC162EF7D1632079
:10828000013500F0C4FC102DE7D10134E4B2082C14
:10829000DBD1074B4FF480721A60642000F0B7FC0A
:1082A00000F0AEFC4307FBD44FE700BF38C0092005
:1082B0003CC0092038B503780D4623B10378012B63
:1082C0002FD1402400E02924122042F6223100F070
:1082D000C6FB142043F24B3100F0C1FB202040F6D6
:1082E000F15100F0BCFB2988022089B200F0B7FBF5
:1082F0000320214600F0B3FB00F082FC4106FBD5D1
:10830000612000F084FC00F07BFC4207FBD5054BAC
:108310004FF480721A60632000F079FC024B8022D7
:108320001A6038BD38C0092058C00920044B4FF0EE
:1083300080521A60034B1A6822F002021A607047DA
:1083400098C00920040003400023054A1268520720
:10835000FBD5044A1268C2540133242BF5D170476F
:108360000C0003400800034010B5084B084A1B6886
:108370001268C3F3130340F6354404FB0323836000
:1083800042F210735943C16010BD00BF24100010A9
:10839000084000400B4B0C4A1B68126840F6354100
:1083A000C3F3130301FB03238268C06893423CBFFD
:1083B00003F1434303F5A0039B1A834234BF00201B
:1083C0000120704724100010084000407047000052
:1083D00000234360034B40F668121A8001230370A8
:1083E000704700BF4C040010012303707047000069
:1083F00010B547F6FF7104460D2000F030FB122047
:1084000042F6223100F02BFB142041F24B3100F0F8
:1084100026FB20204FF4986100F021FB1E4B022028
:10842000198889B2013989B200F019FB032026218D
:1084300000F015FB2120032100F011FB2D2046F256
:108440000F3100F00CFB2C2049F6FE7100F007FB09
:1084500000F0D6FB4006FBD5104A4FF08053136066
:108460000F4A6120116841F0020111600D4A13604A
:1084700000F0CDFB00F0C4FB4107FBD50E2000F05F
:10848000E5FA00F01F000F28F8D1622000F0BFFBD2
:108490000223237010BD00BF4C04001098C00920B7
:1084A000040003409CC0092010B547F6FF71044644
:1084B0000D2000F0D4FA122042F6223100F0CFFA5B
:1084C000142043F24B3100F0CAFA20204FF4986197
:1084D00000F0C5FA1A4B0220198889B200F0BFFAE1
:1084E0000320262100F0BBFA2120032100F0B7FA77
:1084F00005200F2100F0B3FA00F082FB4206FBD505
:10850000612000F084FB00F07BFB4307FBD50E20CD
:1085100000F09CFA00F01F000F28F8D1094B8022D0
:108520001A60632000F073FB074B4FF480721A60EF
:1085300005232370A369A36044F62063E36010BDA4
:108540004C04001058C0092038C0092010B504465A
:10855000FFF720FFB0B163685A1C0B4B1340002B90
:1085600003DA013B63F003030133084A636032F826
:108570001320074B204607211A80FFF7F5FE012341
:108580002361237010BD00BF0300008000A900001C
:108590004C04001010B50446FFF7FCFE30B1012377
:1085A00023702361A369A360014BE36010BD00BF8A
:1085B000B0AD010010B50446FFF7ECFE00B3642037
:1085C00000F025FB0F4B80221A604FF4807243F8B5
:1085D000202C63685A1C0C4B1340002B03DA013B20
:1085E00063F003030133094A636032F81320084B38
:1085F0001A8003232370A369A3604EF66023E3600F
:1086000010BD00BF5CC009200300008000A900006D
:108610004C04001010B58AB0002128226846FBF7F0
:1086200007FE174B174A1B68126840F63541C3F323
:10863000130301FB0323099300F0E2FAC0061DD5E2
:10864000114B10241C606846FFF77EFE0620694629
:10865000099AFCF7D7FC0D4B61201C6000F0D7FA9B
:1086600000F0CEFA4107FBD50E2000F0EFF900F044
:108670001F000F28F8D1622000F0C9FA0AB010BD1F
:10868000241000100840004038C009203CC00920D8
:1086900010B5044600F0B4FAC3060ED504232370C7
:1086A00001236361114B124A1B681268C3F3130361
:1086B00040F6354101FB0323A36123695BB12046EA
:1086C000FFF768FE38B1042323700023636120465E
:1086D0000B21FFF749FE2378022B06D0642000F01F
:1086E00096FABDE81040FFF721BE10BD241000101F
:1086F0000840004030B58BB000210446282268466F
:10870000FBF796FD1B4B1C4A1B681268C3F313034F
:1087100040F6354101FB032320460993FFF73AFE5B
:1087200028B120460421FFF71FFE0323237000F029
:1087300067FAC20612D5114B10251D606846FFF777
:1087400003FE6946099A0620FCF75CFC0C4B2046A8
:108750001D600621FFF708FE032323702378022BF8
:1087600006D0642000F053FAFFF7E0FD01232361F7
:108770000BB030BD241000100840004038C0092064
:108780003CC0092030B589B0002104461C2201A854
:10879000FBF74EFD012C144D09D006D3022C01D15C
:1087A000124C05E000232B701BE0114C00E0114C33
:1087B000114B4FF080721A6000F0C0F82B780D2B2F
:1087C00006D19DF8043001A854F823309847F5E706
:1087D000642000F01CFAFFF7A9FD084B4FF08072EF
:1087E0001A6009B030BD00BF460E00103CA9000061
:1087F00008A9000024A9000000E100E080E100E0F9
:1088000000F018BD08B500230C4A0D49981888429D
:1088100004D20C49595899500433F5E70A4B0B4AD6
:10882000934203D2002243F8042BF8E7FBF7D2FC73
:10883000074B084A1A60FEF7B5FDFEE7200000105E
:10884000140E0010A8A90000180E0010C037001068
:1088500008ED00E000400000FEE70000044A0A23A3
:1088600013601368013B1360002BFAD1704700BFFF
:108870002C0F001090FAA0F070470000830803EB63
:10888000D00303EB901303EBD01303EB9023054AC3
:1088900003EBD02050605368013B5360002BFAD1AA
:1088A000704700BF2C0F0010014B5843FFF7E6BF85
:1088B00040420F00104A0023136053609360D3605E
:1088C0001361D361536293620C4A136013621364A1
:1088D0001366C2F880300A4A136053609360D36015
:1088E0001361D3615362074A136013621364136602
:1088F000C2F88030704700BF00C0024000C00920AD
:1089000040C0024014C0092008B5FFF7D3FF0A4A4F
:1089100000234CF212711360116240F2B111116424
:108920004FF040511366C2F8801053615363536592
:108930005367C2F8943008BD00C00920114B1A6873
:1089400022F4404242F400421A601A6822F4405273
:1089500042F400521A601A6822F4403242F40032A3
:108960001A601A6822F4402242F400221A60064B70
:108970004FF080521A60054BC7221A600C225A60D1
:10898000704700BF00C0024098C0092000000340AB
:10899000094B1A6822F470121A60084B1A6822F008
:1089A000C0621A60064B1A6842F420121A601A68F4
:1089B00022F4A0121A60704704C0024000C00920CF
:1089C00044C0024030B50124431E9C40202201389F
:1089D0000D4BC0B2FF281A600C4B11D0214208BFCA
:1089E000094D4FF0010214BF1A602A6010221A606C
:1089F000074B49001B689B0748BF41F00101E6E7B0
:108A000020221A60084630BD5CC0092058C00920E9
:108A100054C0092010B50A4CFFF7BAFF4FF4007399
:108A200023603220FFF72AFF064B20221A604FF402
:108A30008043236018200449BDE81040FFF7C2BFFF
:108A400038C0092058C00920FF7F0D0008B540F04C
:108A5000800109041820FFF7B5FF80B208BD41EA84
:108A600000411820FFF7AEBF08B540F080010902B1
:108A70001020FFF7A7FFC0B208BD000010B5124BD1
:108A8000202240F080001A6000021122531E13F0D1
:108A9000FF020E4B14D010F4004F08BF0A4C4FF0E9
:108AA000010114BF1960216010211960084B4000BA
:108AB0001B689C07044B48BF40F001001960E5E7C4
:108AC00020221A60C0B210BD5CC0092058C0092025
:108AD00054C0092041EA00211020FFF773BF0000B5
:108AE000F8B5214B20221A600823702212F0800F63
:108AF0001E4D08BF1C4E4FF0010414BF2C603460A3
:108B000010242C60013B184D520013F0FF03D2B229
:108B10002C60EBD1DAB2824217D2CA5C082412F080
:108B2000800F124E08BF104F4FF0010514BF356083
:108B30003D6010253560013C0B4E520014F0FF04DF
:108B4000D2B23560EBD10133E4E70823074C064984
:108B5000013B102213F0FF0322600A60F6D1FFF7F9
:108B60007DFE20232360F8BD5CC0092058C0092089
:108B70002DE9F041204B20221A600746884608253F
:108B8000F02313F0800F1D4908BF1B484FF001026E
:108B900014BF0A60026010220A60013D16495B00A2
:108BA00015F0FF05DBB20A60EBD1EBB2BB421BD282
:108BB00008260024FFF752FE104B10221A60043BD7
:108BC0001B6864009B07E4B248BF44F00104013E07
:108BD000FFF744FE084B102216F0FF061A60E9D199
:108BE00008F805400135E0E7FFF738FE034B202287
:108BF0001A60BDE8F08100BF5CC0092058C00920A0
:108C000008B500210820FFF7DDFEC0B208BD08B599
:108C100001460820FFF7D6FEC0B208BD08B51820EF
:108C20000021FFF7CFFE0020FFF710FF0028FAD148
:108C300018204FF40041FFF7C5FE0020FFF706FFA4
:108C4000B0F5004FF9D108BD10B5464B44F23A02D9
:108C50001A600022C3F80C2180331A68AA2122F07E
:108C600002021A60404A1160552111603F4A1268A1
:108C70009001FBD41A6822F001021A603A4BAA2232
:108C80001A6055221A60394B1B6813F08073FAD1B1
:108C9000374A1360FFF7C2FF18203649FFF792FEEC
:108CA0006020FFF7B4FFFFF7ABFF4106FBD5324B67
:108CB00020221A601A685206FCD5304B08221A602E
:108CC00000225A60012243F89C2C2D4A9C3B43F819
:108CD000882CAA2155222B4843F8801C43F8802C6D
:108CE000046844F00104046043F8801C43F8802CBD
:108CF0001E4B1B68DB01FBD51D4B03221A6053F88A
:108D0000842C42F0020243F8842CAA2243F8782CE7
:108D1000552243F8782C154B1B689C01FBD51A4B48
:108D200022221A60AA215522184899609A60046884
:108D300044F00104046099609A60154B1A68D005EC
:108D4000FBD51A685105FCD5104B1A6842F0020297
:108D50001A60AA22DA605522DA600D4B1B689A0568
:108D6000FBD510BD00C00F408CC00F4088C00F4025
:108D700004C10F4070150800A0C10F40A8C10F40EA
:108D80001800010080C00F40A4C00F40A0C00F40D9
:108D9000A8C00F4008B5FFF7B7FDFFF73BFEBDE8E1
:108DA0000840FFF751BF000008B5FFF783FD094BEE
:108DB00002221A604FF080431A68074842F003020B
:108DC0001A60AA229A6055229A60BDE80840FFF70F
:108DD00055BD00BF3CC0092040420F0030B58BB0EC
:108DE000362304460AA80D4640F8283D05A96846E2
:108DF000074B9847059B2370069B1A0A6370A27065
:108E00001A0C1B0E23710523E2702B600BB030BDD2
:108E1000F11FFF1F30B58BB03A2304460AA80D4658
:108E200040F8283D05A96846134B9847059B2370D9
:108E3000069B1A0A6370A2701A0C1B0E2371079B03
:108E4000E2701A0A6371A2711A0C1B0E2372089B3E
:108E5000E2711A0A6372A2721A0C1B0E2373099B29
:108E6000E2721A0A6373A2731A0C1B0E2374112385
:108E7000E2732B600BB030BDF11FFF1F00B58BB04C
:108E800039230AA840F8283D05A96846024B9847AF
:108E90000BB05DF804FB00BFF11FFF1F38B5084C95
:108EA000802025686168402DA8BF40252A4600F033
:108EB00055F963682B44636023685D1B256038BDEA
:108EC000340F001037B5114B1C7A1D46C4F3411402
:108ED000022C0DD1002202A941F8042D03F1080053
:108EE00003F11002043300F063FA08B101980AE0BC
:108EF00005EB840463692BB1054800F10801021FEA
:108F0000984700E0184603B030BD00BF340F001092
:108F10003C0F001010B500284AD101F0040303F003
:108F2000FF01254C0BB3082204F1080100F046F9BB
:108F3000227AC2F3411304EB83035B6A6360E38923
:108F4000236023610BB1D20934D0FFF7BBFF28B9EE
:108F500080200121BDE8104000F0F4B8E2892369C7
:108F60009A42D4BF2260236019E02268002A1ADDE9
:108F7000616800F023F90028EADB6368034463605A
:108F80002368181A2060A8B9237AC3F3411304EBAD
:108F900083035B6A6360FFF795FF0028D8D0BDE8C4
:108FA0001040FFF77BBF0A46BDE8104000F006B94D
:108FB0008028F4D010BD00BF340F0010024B03EB2B
:108FC0008000416142627047340F0010704700001A
:108FD00010B50E4C00F094F90D4800F07DF82146D4
:108FE000002000F05FF82146802000F05BF80020B0
:108FF000402100F03BF88020402100F037F80020AD
:109000000449054AFFF7DAFF012010BD158F000063
:10901000CD8F0000B1940000680F0010034B1B6857
:1090200003408342FAD1024B1860704700C20050DF
:1090300008C20050044B000440F4A06030221A60C3
:1090400098601020FFF7EABF08C2005010B50C4628
:109050002404FFF7EFFF044B44F480741C601020DD
:10906000BDE81040FFF7DABF10C2005010B500F0A5
:109070000F04C00940EA44040122A240084B1868CA
:1090800002431A604FF480705C609960FFF7C6FF7E
:1090900044F040000021BDE81040FFF7D7BF00BFFB
:1090A00044C200500A4A00F00F03C00942F82310DE
:1090B00040EA4300012101FA00F0064B1A68104310
:1090C000186053F8302C42F0040243F8302C7047FB
:1090D000700F001034C20050034B1864034B1A6821
:1090E00042F008021A607047700F001004C200506E
:1090F00040F08001D020FFF7A9BF011C18BF01215B
:10910000FE20FFF7A3BF0146F320FFF79FBF00003B
:1091100010B500F00F04C00940EA44042046FFF7F0
:1091200089FF2404054B44F400741C602020FFF7E1
:1091300075FF034B1868C0B210BD00BF10C20050CD
:1091400014C2005000F00F03C00940EA4300003190
:1091500040F0400018BF0121FFF778BF10B500F0C4
:109160000F03C009144640EA4300114A9B0043F034
:10917000020313600F4B1C600D4B1A6812F00202C1
:109180000ED08A78CB78120442EA03620B7804315D
:109190001A4311F8033C42EA0322074B1A60EBE73B
:1091A0001A60FFF747FFFA20FFF744FF204610BD83
:1091B00028C2005024C200501CC2005038B500F034
:1091C0000F03C00940EA4300144C9B0043F0010325
:1091D0002360134B1B681D05FBD55C051BD5C3F332
:1091E000090500231C46AC420BD014F0030F04BF4A
:1091F0000C4B1B6811B1944238BF0B551B0A01344C
:10920000F1E7064B00221A60FFF714FFF220FFF788
:1092100011FF204638BD4FF0FF3038BD28C2005046
:1092200020C2005018C20050011C18BF0121D820D4
:10923000FFF70CBF38B5294B1C68E10711D5012297
:109240009A60274B5D6C65B1F520FFF7F3FE254B67
:10925000254A20201A60FFF7E1FE244B1868C0B2AF
:10926000A847220717D5224B08221A60FE20FFF7D5
:10927000E1FE1C4B1F4A20201A60FFF7CFFE1B4B5C
:109280001868C0B210F01A0F05D0154B1B6C13B143
:1092900000F01500984763071ED5154B04221A608D
:1092A00000240123A340144A1268134211D0134A28
:1092B00020201360FFF7B2FE0C4B60101968084BBA
:1092C00053F820302BB140EAC410C0B201F01F01A6
:1092D00098470134202CE4D138BD00BF00C20050B3
:1092E000700F001010C200500002F50014C20050B0
:1092F00008C200500002FE0030C2005038C20050C8
:1093000008B5244B1A6822F4402242F480221A60E5
:1093100053F8042C22F0300242F0100243F8042CDF
:1093200053F8042C22F0405242F0005243F8042C2F
:1093300053F80C2C22F0406242F0806243F80C2C6F
:1093400053F80C2C22F0405242F0805243F80C2C7F
:10935000114B1A6842F000421A60104B1A6842F032
:1093600012021A600E4B1A689207FBD51A68D006D3
:10937000FCD50C4B00200C4A18604FF0FF331360F3
:109380005062D0621363094B1860FFF7BCFE0120E6
:1093900008BD00BF10C00240C4C00F40F4CF005051
:1093A000F8CF005004C2005008C2005040C2005024
:1093B00070B5164C0025247814B34678A64221D106
:1093C00084880D60042CC688458805D0052C1BD1E7
:1093D0000F481860922002E00E48186028201060A4
:1093E0001468280A000484420EDB1D680544201A14
:1093F0001D60B042D4BF106016600120086070BDCF
:10940000204670BD284670BD012070BDB80F001009
:109410005D09001058A9000010B50A4B187079B109
:10942000094B00228C5C981E3CB10132262A18465A
:1094300003F8024C03F10203F4D10023037083709C
:1094400010BD00BFB80F0010A1090010014B5860FB
:10945000704700BFB80F0010F0B5050A032DC6B263
:10946000114908D1EE2E06D11048097892300174C6
:109470001860122312E04968002401E0013401441D
:10948000087880B14F78AF42F9D1B442F6D1022DBD
:10949000196006D1C8788B7843EA00231360012055
:1094A000F0BD0B78FAE7F0BDB80F00105D090010B1
:1094B0002DE9F0474B4E0446B3680D461746B046BB
:1094C00043B9267806F01F06012E53D006D3022E8C
:1094D00062D081E098470028F3D080E062783B6852
:1094E000092A79D8DFE802F00578787878090D78CC
:1094F000151C00221A705A7045E0A078FFF7F8FD9D
:109500006DE06088A1882A463B46BDE8F047FFF73A
:10951000A3BF98F80C2001201A702860BDE8F087DE
:10952000A6780EB930461FE0FF27D8F80450B94698
:109530002B78C3B16B78042B06D0052B06D0022BF9
:109540000ED195F805900BE0EF7809E0B14507D111
:1095500037B969792B79A87843EA0121FFF786FDAD
:109560002B781D44E4E70120FFF75EFE638888F84E
:109570000C3034E063783A680A2B06D00B2B07D006
:1095800053BB13705370022304E00023137016E0E2
:1095900063880BBB2B6022E0D7F800806778012F2F
:1095A0000FD002D3032F10D016E02079FFF7B0FDC3
:1095B0000023C0F3400088F8000088F801302E60D6
:1095C0000DE0618841B9207903E0638823B92079EF
:1095D0000121FFF7B7FD02E00020BDE8F087012080
:1095E000BDE8F087B80F00109140031C90409C46E6
:1095F000203A9340194352426346D340194370477F
:1096000040F24843C1F200030146186800F008B870
:1096100040F24843C1F200030146186800F0F6BB6F
:109620002DE9F04F01F10B05162D87BF25F0070539
:10963000EB0F002310258D422CBF194643F001018A
:1096400083B00746002940F0B48000F045FBB5F533
:10965000FC7F1FD240F60426C1F200064FEAD50C6B
:1096600006EBCC03DC689C4200F0F4816368E2689E
:1096700023F0030323445868A16840F00105CA6041
:10968000384691605D6000F029FB0834204603B045
:10969000BDE8F08F5FEA552C04BF7E214FF03F0CF0
:1096A00040F08E8040F60426C1F2000606EB8101F0
:1096B000CC68A14206D10DE0002B80F26381E46802
:1096C000A14207D0626822F00302531B0F2BF3DD87
:1096D0000CF1FF3C0CF1010C40F60423C1F2000335
:1096E000346903F1080E744508BF5A6821D06168D7
:1096F00021F003014A1B0F2A00F39081002AC3F8CE
:1097000014E0C3F810E066DAB1F5007F80F05F8105
:10971000C9088A104FF0010808FA02F803EBC101EA
:109720005A68886848EA0202A060E1605A608C606A
:10973000C4604FEAAC0301209840904258D80242DE
:1097400006D12CF0030C400002420CF1040CFAD0BC
:1097500006EBCC084446E146E3689C4207D170E141
:10976000002A80F28181DB689C4200F06A8159689E
:1097700021F003014A1B0F2AF2DD1C4654F808CFE2
:10978000D96845F0010942F001081D44C3F804906E
:109790003846CCF80C10C1F808C075613561C5F8C1
:1097A0000CE0C5F808E0C5F80480AA5000F096FA6D
:1097B0006CE70C2300240360204603B0BDE8F08F63
:1097C000BCF1040F00F2EF804FEA951C0CF1380C4D
:1097D0004FEA4C0166E721444B68384643F00103E9
:1097E0004B6000F07BFA0834204603B0BDE8F08FF0
:1097F000B468636823F003094D4504D8C5EB090339
:109800000F2B00F3AF8040F6D07340F6106AC1F220
:109810000003C1F2000A1B68DAF800102B44013182
:109820001DBF03F580530F3323F47F6303F1100C46
:1098300018BF23F00F0C04EB0902614638468DE88F
:10984000041000F04DFA9DE80410B0F1FF3F80468F
:1098500000F02081824200F21A8140F6D47BC1F2EE
:10986000000BDBF8003042456344CBF8003000F0D9
:109870005F81DAF8000040F6106101301CBFC2EBD6
:1098800008029B18C1F200010CBFC1F80080CBF8A0
:10989000003018F007031FBFC3F108029044C3F55E
:1098A000805303F1080A08EB0C0308BF4FF4805AF9
:1098B000C3F30B03C3EB0A0A5146384600F010FA13
:1098C000431C18BFC8EB0001DBF8003015BF514442
:1098D0004FF0000A41F00101012140F6D4725344D7
:1098E000B442C6F80880CBF80030C8F80410C1F2C2
:1098F000000218D0B9F10F0F40F2FB806168A9F1A6
:109900000C0020F0070001F0010140EA010C4FF0CB
:10991000050E21180F28C4F804C0C1F804E0C1F8EE
:1099200008E000F2118140F6CC72C1F20002116829
:10993000B4688B4288BF136040F6C872C1F200025F
:1099400011688B4288BF1360626822F0030295425F
:10995000C5EB020301D80F2B04DC384600F0BEF93A
:10996000002493E645F0010243F0010325446260C0
:109970003846B5606B6000F0B1F90834204603B09A
:10998000BDE8F08F22445068E368A16840F001050B
:10999000CB6038469960556000F0A0F90834204645
:1099A00003B0BDE8F08FBCF1140F9CBF0CF15B0C51
:1099B0004FEA4C017FF676AEBCF1540F00F28F8077
:1099C0004FEA153C0CF16E0C4FEA4C016AE64B0A6B
:1099D000042B58D9142B9CBF03F15B02500005D90E
:1099E000542B00F2BA800A0B6E32500006EB800056
:1099F000836840F604288342C1F200087FD05A6889
:109A000022F00302914202D29B689842F7D1D968B2
:109A10007268E160A3608C60DC608AE645F0010654
:109A200042F001012544666038465D611D61C5F85C
:109A30000CE0C5F808E06960AA50083400F04EF95F
:109A400024E609F1010919F0030F04F108047FF479
:109A500083AE28E004F108036469A34208BF0CF157
:109A6000020C3FF439AE01E6194448681C4654F82C
:109A7000082FDB6840F001054D603846D3609A60DE
:109A800000F02CF902E68A0938325000AEE7B44201
:109A90003FF4E3AEB468626822F0030257E7D8F8F7
:109AA000008098456BD11CF0030FA8F108030CF15E
:109AB000FF3CF4D1736823EA0003736040009842CE
:109AC0003FF696AE00283FF493AE0342CC467FF4B7
:109AD0003FAE400003420CF1040CFAD038E6BCF56E
